:020000020000FC
:0C0000000C9412000C941D000C942400C1
:100020000C94470004E00EBF0FE50DBF0E944E0088
:1000300001E009BD0CE208BDFFCF0F930FB70F938E
:100040000F910FBF0F9118950F930FB70F931F9339
:1000500006B3003021F000916100039503C00091C8
:1000600061000A9500601AF0053011F40150039503
:100070000093610010916200011721F400E009BDB6
:1000800000E008BD1F910F910FBF0F9118950F93BE
:100090000FB70F930F910FBF0F9118950FE005BF8A
:1000A00000EC0BBF00EF01BB00E007BB08E10EBD99
:1000B00002EA0FBD0AE007BD08E206BD0EB5036007
:0A00C0000EBD04E009BF7894089516
:00000001FF
